:020000040000fa
:080000000002040000000000f2
:020000040000fa
:04000c009403000059
:020000040000fa
:04001000a403000045
:020000040000fa
:04001400b403000031
:020000040000fa
:04001800c40300001d
:020000040000fa
:0400340014030000b1
:020000040000fa
:04004800140400009c
:020000040000fa
:04005c00c8020000d6
:020000040000fa
:04020c00d403000017
:020000040000fa
:04021000e403000003
:020000040000fa
:04021400f4030000ef
:020000040000fa
:0402180004040000da
:020000040000fa
:100400006f8620000e7f22000e0188000000000091
:10041000000020000000e000020032000001200087
:1004200020028800140007004d0107000000e000d2
:1004300003003a0080ed2000010020000200370098
:100440000000200001002000810f70000100320038
:1004500014000700000020000000e000020032004d
:1004600000000200000000009007020000000000f1
:100470000040da000000fe004440a9000000200017
:100480000000e0000300320000002000a00188000e
:100490004440a800000006008a1f78008b1f7800e7
:1004a0000000060091018800800478000000eb0045
:1004b0001a003700e284440032a0b4009905ba0063
:1004c000e284440032a0b4009906ba00e2844400f9
:1004d00032a0b4000006eb00476fde00fd07b2005b
:1004e000636ce10003003a00ebff07000000eb0043
:1004f0000a003700606ce10004003a00005deb0088
:100500008b05e900fdff3e00040037006168e10053
:10051000010032000086eb000b00070019c7ba008b
:100520001905ba000e04e00003003a000a00e000da
:10053000e0ff3a0000000600fe07b2009e018800be
:100540008a047800f5ff3700395dba008b05e900b1
:100550000c003200295dba008b05e900080032006a
:100560000c00e00003003a00e284440032a0b40032
:10057000f5ff370019ddba008b05e900faff3a00f4
:100580008904e800e184440032a0b40000000600c1
:100590003600f800809fbe00829fbe00849fbe0090
:1005a000869fbe003400f80000002000a0018800f3
:1005b0000000fa0010408000017d200081006800ea
:1005c00001f0a7008100ea008100e900cf08de0009
:1005d000814078000000e800104088000104e0003d
:1005e00003003200700020003d0107000228ef00e8
:1005f00000188000804088002081200011c0b300d6
:100600000148780085a0a9000080fa003400f900b4
:100610004f03be004f02be004f01be004f00be00a0
:100620003600f900004006003600f800809fbe004a
:10063000829fbe00849fbe00869fbe003400f800eb
:1006400000002000a00188000000fa006080200067
:1006500090407800a0c3b30080cf500006003e0059
:1006600060802000104078008040e800608020001a
:10067000014878001e003700608020008040eb00b9
:10068000014878005080200090407800a0c3b3005b
:1006900080cf500006003e005080200010407800bf
:1006a0008040e800508020000148780010003700aa
:1006b000508020008040eb000148780040802000fe
:1006c00010407800f64f500006003e0040802000a9
:1006d000104078008040e800408020000148780009
:1006e00003003700408020008040eb000148780084
:1006f000a080200011c0b3000148780080002000d5
:10070000f70007008460a9000080fa003400f900b7
:100710004f03be004f02be004f01be004f00be009f
:100720003600f900004006003400f800881f780009
:1007300008002000a80188004f0478000000fa009b
:100740008020a900ffff37003400f800881f7800e0
:1007500008002000a80188004f0478000000fa007b
:100760008060a900ffff37003400f800881f780080
:1007700008002000a80188004f0478000000fa005b
:100780008040a900ffff37003400f800881f780080
:1007900008002000a80188004f0478000000fa003b
:1007a0008080a900ffff37003400f800881f780020
:1007b00008002000a80188004f0478000000fa001b
:1007c0008020a900ffff37003400f800881f780060
:1007d00008002000a80188004f0478000000fa00fb
:1007e0008060a900ffff37003400f800881f780000
:1007f00008002000a80188004f0478000000fa00db
:100800008040a900ffff37003400f800881f7800ff
:1008100008002000a80188004f0478000000fa00ba
:100820008080a900ffff37003600f800809fbe00df
:10083000829fbe00849fbe00869fbe003400f800e9
:1008400000002000a00188000200fa000040eb0038
:10085000004f7800360037001e80fb006a00b900a8
:1008600080007800c08520000080400010007800e3
:100870000000e0002d0032001e81fb006a10b9006c
:1008800000007800e6004000c085200000804000a5
:100890001000be0061004000e08048006a11b9000d
:1008a0008201780022862000028141000089be007a
:1008b0001e80fb006a00b90000007800e6004000de
:1008c000c0852000008040001001be001e80fb009b
:1008d0006a00b900000078008080e800c085200030
:1008e000008040001000be00800f5100818f590031
:1008f0000e003a001e80fb006a00b90080007800fc
:10090000c085200000804000100078000000010039
:100910001e80fb006a00b90080007800208620005d
:10092000008140006000b8000089be001e4fe80052
:100930001e4078000004e000c7ff32008500a900d7
:100940000080fa003400f9004f03be004f02be00e1
:100950004f01be004f00be003600f9000040060007
:1009600000000500800178000200370081597800fe
:100970000201e9000200e000fcff3a00000006006e
:020000040000fa
:100980000200fa00000f78001e007800e40f50000b
:100990001a003200e40f500009003e00e10f500041
:1009a00010003200e10f50001e003900e20f50002d
:1009b0000e003200e30f50000e0032001a00370024
:1009c000e60f500011003200e60f50000d00390014
:1009d000e70f50000f003200e80f50000f00320008
:1009e00011003700c402a8000f003700c422a8007d
:1009f0000d003700c442a8000b003700c462a800f5
:100a000009003700c482a80007003700c4a2a8006c
:100a100005003700c4c2a80003003700c4e2a800e4
:100a200001003700000000000080fa00000006000e
:100a30000200fa00000f78001e007800e40f50005a
:100a40001a003200e40f500009003e00e10f500090
:100a500010003200e10f50001e003900e20f50007c
:100a60000e003200e30f50000e0032001a00370073
:100a7000e60f500011003200e60f50000d00390063
:100a8000e70f50000f003200e80f50000f00320057
:100a900011003700c402a9000f003700c422a900ca
:100aa0000d003700c442a9000b003700c462a90042
:100ab00009003700c482a90007003700c4a2a900ba
:100ac00005003700c4c2a90003003700c4e2a90032
:100ad00001003700000000000080fa00000006005e
:100ae0000200fa00000f78001e007800e40f5000aa
:100af0003a003200e40f500009003e00e10f5000c0
:100b000010003200e10f500075003900e20f500074
:100b100018003200e30f500023003200710037004c
:100b2000e60f500047003200e60f50003800390051
:100b3000e70f500050003200e80f50005b00320019
:100b40006800370020168000004078006140600097
:100b50000004a200614060000080fb0061006000b2
:100b6000211680000100a1000100700020168800fd
:100b70005c003700201680000000d100614060005a
:100b80000004a200614060000080fb006100600082
:100b900000004000211680000110a100010070003b
:100ba000201688004f003700201680004200de002b
:100bb000614060000004a200614060000080fb0012
:100bc000610060004200dd00211680000120a100cc
:100bd00001007000201688004200370020168000b7
:100be0004300de00614060000004a200614060003c
:100bf0000080fb00610060004300dd0021168000e2
:100c00000130a10001007000201688003500370077
:100c1000201680004400de00614060000004a20055
:100c2000614060000080fb00610060004400dd0066
:100c3000211680000140a1000100700020168800ec
:100c400028003700201680004500de00614060006b
:100c50000004a200614060000080fb0061006000b1
:100c60004500dd00211680000150a1000100700048
:100c7000201688001b003700201680004600de008a
:100c8000614060000004a200614060000080fb0041
:100c9000610060004600dd00211680000160a100b7
:100ca00001007000201688000e003700201680001a
:100cb0004700de00614060000004a2006140600067
:100cc0000080fb00610060004700dd00211680000d
:100cd0000170a1000100700020168800010037009b
:100ce000000000000080fa00000006000200fa0088
:100cf000000f78001e007800e40f50002c00320036
:100d0000e40f500009003e00e10f500010003200d7
:100d1000e10f500051003900e20f50001400320082
:100d2000e30f50001a0032004e003700e60f50006b
:100d30002f003200e60f500025003900e70f500069
:100d400034003200e80f50003b003200450037000d
:100d5000201680006100600000f0a7000000ea009b
:100d60000000ea004f00de00004078003e0037003f
:100d7000201680006200600000f0a7000000ea007a
:100d80000000ea004f00de00004078003600370027
:100d9000201680006400600000f0a7000000ea0058
:100da0000000ea004f00de00004078002e0037000f
:100db000201680006800600000f0a7000000ea0034
:100dc0000000ea004f00de000040780026003700f7
:100dd000201680007000600000f0a7000000ea000c
:100de0000000ea004f00de00004078001e003700df
:100df00021168000000220000080600000f0a700a3
:100e00000000ea000000ea004f00de000040780029
:100e100015003700211680000004200000806000cb
:100e200000f0a7000000ea000000ea004f00de002a
:100e3000004078000c0037002116800000082000d8
:100e40000080600000f0a7000000ea000000ea0057
:100e50004f00de0000407800030037000040eb0048
:100e6000010037000040eb000080fa00000006009f
:100e70000200fa00000f78001e007800e40f500016
:100e80001a003200e40f500009003e00e10f50004c
:100e900010003200e10f50001e003900e20f500038
:100ea0000e003200e30f50000e0032001a0037002f
:100eb000e60f500011003200e60f50000d0039001f
:100ec000e70f50000f003200e80f50000f00320013
:100ed00011003700c002a9000f003700c022a9008e
:100ee0000d003700c042a9000b003700c062a90006
:100ef00009003700c082a90007003700c0a2a9007e
:100f000005003700c0c2a90003003700c0e2a900f5
:100f100001003700000000000080fa000000060019
:100f20000000fa00cd0307001101200030812000ed
:100f300044010700110120005082200041010700f8
:100f40000000000010002000430307000004a2007e
:100f50000004e000fbff3a00100020000a03070035
:100f6000100020007b020700110120007083200088
:100f70003401070011012000908420003101070096
:100f800003003700000000000100370000000000ef
:100f9000a0802000104078000004e000f9ff32003b
:100fa0004080200010407800d70007003200070082
:100fb000a08020008040eb000148780020812000c4
:100fc000104078000004e000f0ff32008040800014
:100fd0005c00070000c2b3003701070000c2b30085
:100fe0003501070000c5b30033010700f0c6b300a8
:100ff0003101070040c7b3002f01070000c2b30052
:101000002d010700d0c3b3002b01070000c2b300bd
:1010100029010700b0802000104078002601070059
:10102000e0c2b30024010700c08020001040780017
:1010300021010700d0802000104078001e01070029
:1010400000c2b3001c01070060c5b3001a0107000d
:1010500040c6b3001801070030c6b30016010700f0
:1010600000c2b30014010700208120008040eb0083
:1010700001487800c6ff37000000fa0040c5b30001
:101080000d01070090c6b3000b010700d0c6b300e6
:101090000901070050c6b3000701070000c2b300f2
:1010a0000501070080802000104078000043b00058
:1010b0000101070090802000104078000043b0003c
:1010c000fd00070050802000104078008e000700cf
:1010d000a0c3b300f800070000c2b300f600070089
:1010e00080802000104078000043b000f20007002c
:1010f00090802000104078000043b000ee00070010
:1011000060802000104078007f000700a0c3b3007b
:10111000e900070000c2b300e7000700808020005c
:10112000104078000043b000e300070090802000ea
:10113000104078000043b000df0007000080fa0094
:10114000000006000200fa00000f7800b0802000c6
:101150008040eb0001487800c08020008040eb0018
:1011600001487800d08020008040eb0001487800e2
:10117000e08020008040eb00014878004500370007
:10118000501320009e007800808f50000800360029
:10119000b0802000104078008040e800b08020003f
:1011a00001487800a1ec2f001e8f40003900370065
:1011b0001e007800fe0f500015003600c080200091
:1011c00010407800e84f500006003e00c08020002c
:1011d000104078008040e800c0802000014878007e
:1011e00008003700b0802000104078008040e80000
:1011f000b080200001487800c08020008040eb00d3
:10120000014878001e0178007f0f5100210037004f
:101210001e007800e20f500015003600d08020003c
:1012200010407800e84f500006003e00d0802000bb
:10123000104078008040e800d0802000014878000d
:1012400008003700c0802000104078008040e8008f
:10125000c080200001487800d08020008040eb0052
:10126000014878009e007800638f50000900370025
:101270001e007800e20f500006003e00e0802000d3
:10128000104078008040e800e080200001487800ad
:101290001e0fe9001e0078000000e000b8ff3a00d1
:1012a000b08020001040780002c3b30082404000ac
:1012b000b080200001487800c080200010407800f5
:1012c00002c3b30082404000c08020000148780083
:1012d000d08020001040780002c3b300824040005c
:1012e000d080200001487800e08020001040780085
:1012f00002c3b30082404000e08020000148780033
:101300000080fa00000006000200fa00004f78009a
:10131000708020008040eb00014878008080200031
:101320008040eb0001487800908020008040eb0076
:10133000014878001e00370070ccb3009e40780052
:1013400080cf50000500360081c3b3001ecf40009f
:101350007080200021c0b3000148780030c6b3007f
:101360009e40780080cf500007003600c0c9b3000f
:101370001e4f400070802000104078008040e80040
:1013800070802000014878001e407800e94f50002e
:10139000070036009e4078006acf50008080200011
:1013a000104078008040e8008080200001487800ec
:1013b0001e407800e94f5000dfff3e009080200083
:1013c0001e4878000080fa00000006000000fa00c5
:1013d000f03f2000103088003038280000308800ae
:1013e000100020006030880000e22400eb000700bd
:1013f00000e22400e90007000426ef00800320003b
:101400004030880080202500e40007000426ef001b
:10141000c000200040308800803e2000df00070030
:101420000426ef00600020004030880080bb2000d0
:10143000da0007005a00070010c0b3000080fa006d
:10144000000006000400fa00000f78001107980061
:101450000a0037001e007800104078000000fb00f2
:101460000000e000110032001e00780010407800fb
:101470001e0fe80010000700000000001e00900092
:1014800000f0a7000000ea000000ea004f00de00c4
:10149000004078009e0090008100e900110798004c
:1014a0000004e000ebff3a000100370000000000fc
:1014b0000080fa00000006000200fa00004f7800e9
:1014c0001e00fb00ea0f500007003200ed0f500035
:1014d00003003200e80f50000a0032000e0037000f
:1014e0003e0007002c00370000c8bf000004e000e9
:1014f00002003a009e000700270037009100070015
:10150000250037004700070000c2b300eaff0700cc
:101510004400070020003700100020002030880021
:101520001e00fb0040308800803e20009b0007002a
:1015300001c8bf000040e80001e8b70001c8bf00d3
:10154000f04f500013003a000168ef0000c8bf00e0
:101550000004e00008003a000426ef00000c200020
:101560004030880080bb20008c00070010c0b30012
:1015700000e8b700080037000426ef00000820004c
:101580004030880080bb2000840007000068ef0026
:1015900001003700000000000080fa000000060093
:1015a0000000fa000426ef00100020004030880000
:1015b00080bb2000790007000426ef0020002000f7
:1015c0004030880080bb2000740007000068ef00f6
:1015d0000168ef000080fa00000006000000fa0039
:1015e00000c8bf000004e00006003a000426ef0037
:1015f000000820004030880080bb20006700070002
:10160000050037000426ef00000c20004030880061
:1016100080bb2000610007000168ef000080fa0035
:10162000000006000200fa0001c8bf000004e0004c
:101630001a003a0000c8bf000004e00008003a00a9
:101640000426ef00000c20004030880080bb200002
:101650005200070010c0b30000e8b70006003700d2
:101660000426ef00000820004030880080bb2000e6
:101670004a0007000068ef000040eb00004f7800d0
:10168000020037000f0007001e4fe8001e407800e0
:10169000ee4f5000fbff36000800370001c8bf00c6
:1016a0000040e90001e8b7000426ef000001200037
:1016b00040308800803e2000380007000080fa009b
:1016c000000006000000fa000426ef0040012000a0
:1016d00040308800803e20003000070001c8bf0075
:1016e0000040e80001e8b70001c8bf00f04f50001b
:1016f00012003a000168ef0000c8bf000004e000db
:1017000008003a000426ef00000c2000403088005a
:1017100080bb20002100070010c0b30000e8b70024
:10172000060037000426ef00000820004030880043
:1017300080bb2000190007000068ef000080fa005d
:10174000000006000200fa000040eb00004f7800a5
:1017500002003700b3ff07001e4fe8001e4078006c
:10176000ef4f5000fbff36000080fa00000006003b
:101770000200fa000040eb00004f78000200370042
:10178000d0ff07001e4fe8001e407800ef4f5000ca
:10179000fbff36000080fa00000006000200fa009d
:1017a000000f7800010037001e0fe9001e007800ce
:1017b0000000e000fcff3a000080fa000000060094
:1017c0000200fa00004f78001e4078000004e0009c
:1017d000060032000426ef00f000200040308800b0
:1017e00080bb2000edff0700050037000426ef0056
:1017f000c00020004030880080bb2000e7ff0700c9
:101800000080fa00000006000400fa0010079800ab
:101810001e009000e40f500004003200e50f50005d
:101820000400320000c0eb00100037000000000090
:1018300001003700000000001e0090000d000700ae
:10184000d1cc2c000100b8004308de00004f780026
:1018500040c6b3009e40780080cf500002003600a2
:1018600040c6b300004f78001e4078000080fa00a8
:10187000000006000400fa00100798001e00900007
:10188000e40f500004003200e50f50000400320065
:101890000080eb001d003700000000000100370051
:1018a000000000009e009000411988002023a8003d
:1018b0000000eb00000f7800010037001e0fe80069
:1018c000703e20009e007800808f5000fbff3600a5
:1018d0002023a9000000eb00000f78000100370072
:1018e0001e0fe800703e20009e007800808f5000a0
:1018f000fbff36000000000000198000610060005e
:101900000000e000fcff3200001880000080fa00b8
:10191000000006000200fa00000f78001e007800a8
:10192000e40f500005003200e50f500006003a00b9
:101930002ca3a90010c0b300040037002c83a90019
:1019400010c0b300010037000040eb000080fa0037
:10195000000006000200fa00000f78001e00780068
:101960000000e0001a003a0011198000f0ff210089
:10197000008060001019880000c0eb0024e3b7006d
:1019800001198000f0f12f0000806000001988002c
:1019900021198000f00f2e000080600000c0a00020
:1019a0002019880001198000f0cf2f00008060000e
:1019b000001988001119800030fc2f0000806000a1
:1019c0001019880021e3a80010c0b30023003700dd
:1019d0001e007800e10f50001f003a00011980003e
:1019e000000e200001007000001988002043a800ac
:1019f00011198000f0ff210000806000101988009c
:101a00001119800030fc2f00008060001019880040
:101a10002343a9002203a900f0c2b30024e3b700c6
:101a200021198000f00f2e0080806000003020001f
:101a3000010070002019880095a0a80021e3a800eb
:101a4000500020004019880085a0a9003023ef0035
:101a500010c0b300010037000040eb000080fa0026
:101a6000000006000400fa00100798000040eb0098
:101a7000004f7800110037001e80fb006a00b9009b
:101a800080007800c0852000008040009000780031
:101a90001e009000808f500007003a001e80fb005f
:101aa0006a00b90080007800c085200000804000f6
:101ab0008000eb00010878001e4fe8001e4078000f
:101ac0000004e000ecff32000080fa000000060095
:101ad0000800fa00100798002207980033079800c2
:101ae0000040eb00004f7800210037001e80fb0013
:101af0006a00b90080007800c085200000804000a6
:101b0000100078000000e00018003a001e80fb0082
:101b10006a00b90080007800c08520000080400085
:101b20009e009000010878001e80fb006a00b9004a
:101b300080007800e0852000008040002e019000a9
:101b4000be0190000288be001e80fb006a00b90042
:101b50008000780020862000008140006000b800ee
:101b60000089be0010c0b300050037001e4fe8001a
:101b70001e4078000004e000dcff32000040eb0073
:101b80000080fa00000006000200fa00000f780052
:101b90001e007800e10f500017003200e10f5000e6
:101ba00003003900e20f5000250032002700370003
:101bb000a20020008000eb00c085200069fb070028
:101bc0004105800080ff2f00008060000000a00021
:101bd000400588008500a9000a21ef00007d200053
:101be0007008880000012a00900888009500a8006d
:101bf00010c0b30016003700a20020008000eb00e8
:101c0000c085200057fb070021058000f0ff280059
:101c10000080600000e0a000200588008460a9002a
:101c20000021ef0000002800100888002000280094
:101c3000200888009460a80010c0b300040037009a
:101c40009500a90010c0b300010037000040eb0070
:101c50000080fa00000006000200fa00000f780081
:101c60001e007800e20f500015003200e20f500015
:101c700005003e000000e0002c003200e10f5000a3
:101c8000060032002b003700e30f50001500320031
:101c9000e40f50001c00320026003700a11680001f
:101ca000000420000080600000f0a7000000ea00af
:101cb0000000e9004f00de00004078001e00370001
:101cc000a1168000000820000080600000f0a7003e
:101cd0000000ea000000e9004f00de00004078004c
:101ce00015003700111680000008200000806000f9
:101cf00000f0a7000000ea000000e9004f00de004d
:101d0000004078000c003700a1168000000022007f
:101d10000080600000f0a7000000ea000000e90079
:101d20004f00de0000407800030037000040eb0069
:101d3000010037000040eb000080fa0000000600c0
:101d40000200fa00000f78001e007800e20f500039
:101d50000e003200e20f500005003e000000e000df
:101d600010003200e10f5000060032000e00370074
:101d7000e30f500007003200e40f5000070032006c
:101d800009003700d2c2a80007003700d2e2a8003d
:101d900005003700c0e2a80003003700d3a2a80066
:101da00001003700000000000080fa00000006007b
:020000040000fa
:101db000000800000200000000000000020800000f
:101dc00002000000000000005c0800000a000000a3
:101dd000000000000408000058000000020000009d
:101de00000000000000000000000000000000000f3
:101df00000000000457870006c6f72006572200072
:101e00003136200044656d006f000000507265009f
:101e10007373200053332000746f2000636f6e00d3
:101e20007400000054696d0065203000303a2000d5
:101e300030303a00203030002000000020506f0089
:101e400074203d0020302e003030200056646300a6
:0c1e500020000000000000000000000066
:020000040000fa
:101e5c000000fa007000200002fc07008000200047
:101e6c0000fc070070002000c2fa07008000200070
:101e7c00c0fa070010002000aeff07005000200041
:101e8c00a1fe07004efd0700020007000080fa00cb
:101e9c00000006000600fa0020c0b300004f7800d6
:101eac0060c4b3001047980070c5b3002047980079
:101ebc0020742000200798002e0090009e40900077
:101ecc002e4190009e41780001487800024878002d
:0c1edc00034878000080fa0000000600b7
:020000040000fa
:020000040002f8
:04aff800bdfa00009e
:020000040000fa
:020000040002f8
:04affc007f3f000093
:00000001FF
